:020000040800F2
:10000000FCFF0020A9200000C9200000C92000003A
:10001000C9200000C9200000C9200000C92000003C
:10002000C9200000C9200000C9200000C92000002C
:10003000C9200000C9200000C9200000C92000001C
:10004000C9200000C9200000C9200000C92000000C
:10005000C9200000C9200000C9200000C9200000FC
:10006000C9200000C9200000C9200000C9200000EC
:10007000C9200000C9200000C9200000C9200000DC
:10008000C9200000C9200000C9200000C9200000CC
:10009000C9200000C9200000C9200000C9200000BC
:1000A000C9200000C9200000C9200000C9200000AC
:1000B0007D200000C9200000C9200000C9200000E8
:1000C000C9200000C9200000C9200000C92000008C
:1000D000C9200000C9200000C9200000C92000007C
:1000E000C9200000C9200000C9200000C92000006C
:1000F000C9200000C9200000C9200000C92000005C
:10010000C9200000C9200000C9200000C92000004B
:10011000C9200000C9200000C9200000C92000003B
:10012000C9200000C9200000C9200000C92000002B
:10013000C9200000C9200000C9200000C92000001B
:10014000C9200000C9200000C9200000C92000000B
:1001500001480068704700BF4005002083B0CDF81B
:1001600000E000F0FF031A09104603F00F021346E7
:1001700014E0194A02921FE0184A02921CE0184A41
:10018000029219E0174A029216E0174A029213E00F
:10019000164A029210E0164A02920DE00028E8D0BA
:1001A0000128E9D00228EAD00328EBD00428ECD0BB
:1001B0000528EDD00628EED0012212B29A40ADF803
:1001C000042002980A46BDF8041000F061FCDDF836
:1001D00000E003B0704700BF00080140000C014080
:1001E000001001400014014000180140001C0140B3
:1001F0000020014081B0194900EA010108460022AF
:100200000EE0042022E0082020E010201EE0202044
:100210001CE040201AE0802018E040F2001015E0B9
:100220000F498842EDD00F498842ECD00E498842F0
:10023000EBD00E498842EAD00D498842E9D00D49F9
:100240008842E8D00C498842E7D010460B4909683B
:1002500041EA000209490A6001B0704700FCFFFF53
:1002600000080140000C0140001001400014014052
:1002700000180140001C01400020014018100240FD
:1002800093B20A46014640F2000440F200001FFA11
:1002900080F810469AB2EAB10B191D78EEB2631CD1
:1002A0009FB200EB08031C785FFA84F908F101089B
:1002B0001FFA88F8A54207D04E4502D2FF2040B26F
:1002C00001E0012040B207E006B903E0521E92B2FD
:1002D000BCB2E0E7002040B27047FFFF014640F2A9
:1002E000000340F2000082B20846C118097821B12B
:1002F0005B1C9BB2521C92B2F7E790B27047FFFFB3
:1003000081B0CDF800E0012252B23E490A6000F20D
:1003100068010B686FF0006103EA0102144603F004
:100320000061C90E0B4602F00041B1F1004F02D14D
:1003300035490A6801E035490A6804F47021090C5E
:100340000E464FF6FF7104EA01010D4604F4401118
:10035000B1F5401F0DD16FF0706102EA01010E4648
:100360002A490A686FF070610A4028490A603246DB
:1003700016E004F48011B1F5801F09D14FF003019C
:10038000B140C94302EA010141F070610A4607E049
:10039000610D090105FA01F1C9430A4042F070629A
:1003A0002BB1610D090105FA01F10A43FFE704F0E1
:1003B0000041B1F1004F02D113490A6001E0134935
:1003C0000A6040F2000A81464FEA8A0109EB010106
:1003D0000968B1F1FF3F10D009F134014FEA8A03F7
:1003E000C91809680A4609EB03010968084611465D
:1003F000FFF7B4FE0AF1010AE6E7DDF800E001B01C
:10040000704700BF000342421C000140040001404D
:1004100082B0CDF800E0034619460191FFF798FE3F
:1004200040F2E83100FB01F201990A601F490978A6
:10043000C1F30311C8B21E4909180878C0B21A1DC9
:100440001968C140116019490988C1F3022188B2B5
:10045000174909180878C0B203F20802191D096883
:10046000C140116011490988C1F3C22188B2104905
:1004700009180878C0B203F20C02191D0968C140BE
:1004800011600A490988C1F3813188B20949091804
:100490000978C8B203F2100203F20C010968B1FB3B
:1004A000F0F11160DDF800E002B070470410024086
:1004B000E8240000741F000081B00268C2F34011FC
:1004C00001B9FAE7011D096888B201B07047FFFF62
:1004D00081B00168C1F3401001B0704781B001687C
:1004E000C1F3801001B0704781B0CDF800E003483F
:1004F000FFF7F4FFDDF800E001B07047004C00406A
:1005000001480068704700BF0801224201480068A6
:10051000704700BF1001214281B0CDF800E00348D0
:10052000FFF7CAFFDDF800E001B07047005000405F
:1005300081B0CDF800E004462046FFF7CFFEC5B2FB
:10054000204601F077F80124EBB20D4909888C426E
:1005500011D222010B4989180988994208D1220138
:1005600008498918091D0968814201D1A0B203E038
:10057000641CA4B2E9E70020DDF800E001B0704798
:10058000100200201402002081B0044640F2000056
:10059000ADF8002082B20846BDF8001059B18318AA
:1005A0001B782370237813B1521C92B2FFE7641CAE
:1005B000491E89B2F2E701B07047FFFF85B0CDF860
:1005C00000E0824602918DF80C208DF810305046E4
:1005D000FFF784FE8DF81100C4B2102C02D910244C
:1005E0008DF81140012751469DF80C40A7423FD29B
:1005F000032404FB07F5029C641901912046FFF7D0
:100600006DFE0199C2B240F2000C8A46F9B25FFA5F
:100610008CFB5FFA82FC9DF81140A34523D20AEBC4
:100620000B06032404FB01F5029C64198DF80410E9
:100630005FFA8CF231462046FFF722FE9DF8041047
:1006400058B99DF810400CB9C8B212E09DF810409E
:10065000012C02D15FFA8BF00BE00BF10104E0B248
:100660005FFA80FBD7E74C1CE5B25146EFB2BBE71F
:100670000020DDF800E005B07047FFFF81B0CDF845
:1006800000E00348FFF724FFDDF800E001B0704709
:100690000050004081B0CDF800E00348FFF71EFF96
:1006A000DDF800E001B070470050004081B0CDF8A7
:1006B00000E00348FFF700FFDDF800E001B07047FD
:1006C0000044004081B0CDF800E00348FFF700FF90
:1006D000DDF800E001B070470044004081B0CDF883
:1006E00000E00348FFF7FAFEDDF800E001B07047D4
:1006F0000038014081B0CDF800E00348FFF7DCFE90
:10070000DDF800E001B070470038014081B0CDF85D
:1007100000E00348FFF7DCFEDDF800E001B07047C1
:100720000038014081B0CDF800E00348FFF7D6FE65
:10073000DDF800E001B070470044004081B0CDF822
:1007400000E00348FFF7B8FEDDF800E001B07047B5
:10075000004C004081B0CDF800E00348FFF7B8FE40
:10076000DDF800E001B07047004C004081B0CDF8EA
:1007700000E00348FFF7B2FEDDF800E001B070478B
:100780000048004081B0CDF800E00348FFF794FE38
:10079000DDF800E001B070470048004081B0CDF8BE
:1007A00000E00348FFF794FEDDF800E001B0704779
:1007B0000048004081B0ADF800100146BDF80000CF
:1007C0000B68C3F3C01202B9FAE70A1D106001B04A
:1007D0007047FFFF01480068704700BF28012242B0
:1007E00001480068704700BF2C01224201480068A0
:1007F000704700BF3001224201480068704700BFC7
:100800003881224201480068704700BF140121422C
:1008100089B0CDF800E0834698B28C46BDF824102C
:100820000A9E04ACADF80410ADF808002046FFF7AE
:10083000EFFDBDF80800BDF80410644CA34512D1CB
:1008400001256DB2624C2560624D634C2560634D9D
:10085000634C2560634D644C2560644D644C256099
:10086000079C039456E0634CA34512D101256DB259
:10087000614C2560614D584C2560614D584C256098
:10088000604D594C2560604D594C2560069C039481
:1008900040E05E4CA34512D101256DB25C4C256051
:1008A0005C4D4D4C25605C4D4D4C25605B4D4E4C78
:1008B00025605B4D4E4C2560069C03942AE0594C04
:1008C000A34512D101256DB2574C2560574D424CBE
:1008D0002560574D424C2560564D434C2560564D82
:1008E000434C2560069C039414E0544CA34511D15D
:1008F00001256DB2524C2560524D374C2560524D4A
:10090000374C2560514D384C2560514D384C256091
:10091000069C0394ADF80410ADF808003046FFF7CC
:10092000EFFCBDF80800BDF804100BF11005002421
:100930002C600BF110052C680C432C600BF10C059E
:1009400000242C6018B140F4806080B2FFE70BF106
:100950000C052C6804432C600BF10C06012534684F
:1009600065F34D3434600BF10C060125346865F3F2
:10097000C30434600BF10C060125346865F382046E
:1009800034600BF1140500242C60039D1924654389
:100990004FEA8C04B5FBF4F76424B7FBF4F42601AA
:1009A000350964246C433C1B240104F232056424A1
:1009B000B5FBF4F404F00F0446EA04040BF1080557
:1009C000A4B22C60DDF800E009B0704700380140A7
:1009D000380342421510000044050020F5060000CF
:1009E000480500200D0700004C050020DD06000032
:1009F0005005002000440040C40342428D0F000017
:100A0000AD060000C50600002507000000480040B4
:100A1000C8034242710F0000850700009D070000D7
:100A20006D070000004C0040CC034242A90F0000BB
:100A30003D07000055070000E90400000050004099
:100A4000D0034242C50F0000190500007D060000DA
:100A50009506000001480068704700BF0C01224263
:100A600001480068704700BF1481224201480068B5
:100A7000704700BF1881214201480068704700BFDD
:100A80001C81214201480068704700BF1881224242
:100A900081B0CDF800E08CB21546774B00EA030335
:100AA0001E461846FFF7A6FBB4F1FF0F0CD1734B9F
:100AB0009D4203D14FF033333360D9E0422D03D14F
:100AC0004FF044333360D3E04FF6FF739C4214D1B0
:100AD0006A4B9D4207D14FF033333360341D4FF0E2
:100AE00033332360C4E0422D07D14FF044333360E9
:100AF000341D4FF044332360BAE00021002005F09C
:100B000001030BB100211DE005F0020333B105F430
:100B1000C0730BB1082100E0042113E005F00403C9
:100B200033B105F020030BB1042100E0002109E0FE
:100B300005F0080333B105F020030BB10C2100E0F0
:100B40000821FFE74E4B05EA03030BB1032009E040
:100B500005F400730BB1022004E005F480630BB1CF
:100B60000120FFE705F00C030BB10143FFE704F0A0
:100B7000FF039BB2002B3BD0376800201FFA84F89C
:100B800032462E4608282CD24FF0010303FA00F417
:100B900008EA0403A34222D185004FF00F03AB40C3
:100BA000DB4307EA030401FA05F344EA03031D46A5
:100BB00006F48173B3F5817F05D102F214044FF07E
:100BC00001038340236006F08203822B05D102F2E9
:100BD00010044FF00103834023602F46FFE7401CC1
:100BE000D0E717601FFA88F00F463146164602E03C
:100BF0000F462946A0B2B0F1FF0F39D9331DD3F803
:100C000000800022082A30D202F208044FF00103CB
:100C100003FA04F400EA0403A34224D195004FF040
:100C20000F03AB40DB4308EA030807FA05F348EA81
:100C3000030801F48173B3F5817F07D106F214052F
:100C400002F208044FF00103A3402B6001F082037D
:100C5000822B07D106F2100502F208044FF00103BF
:100C6000A3402B60FFE7521CCCE7331DC3F8008084
:100C7000DDF800E001B0704700FCFFFF1400080041
:100C80000008080001480068704700BF3081224218
:100C900001480068704700BF2C812242014800686B
:100CA000704700BF3001224201480068704700BF12
:100CB0000001214201480068704700BF288122429C
:100CC00001480068704700BF348122420148006833
:100CD000704700BF2801224201480068704700BFEA
:100CE0002C01224201480068704700BF2481224243
:100CF00001480068704700BF208122420148006817
:100D0000704700BF1881214201480068704700BF4A
:100D10001C81214201490860704700BF9C8121422B
:100D200081B0CDF800E0044C2468A047C0B2DDF8E3
:100D300000E001B0704700BF1804002001490860BE
:100D4000704700BF9881214201490860704700BF89
:100D50009881224201490860704700BF9481224275
:100D600081B0CDF800E0054C2468A04708B1002010
:100D700000E00120DDF800E001B07047240400200D
:100D800081B0CDF800E0044C2468A047C0B2DDF883
:100D900000E001B0704700BF0001002000221549AB
:100DA0000A70002214490A70012214490A700022B4
:100DB00013490A60012213490A7013490A8813492A
:100DC00089180870104909884A1C0F490A800E4981
:100DD0000A880F498A4202D301220E490A700A4941
:100DE0000988B1F1FF0F04D1074909884A1E064955
:100DF0000A807047B3000020FB000020040100209F
:100E000008010020050100200C0100200E01002037
:100E1000C00000000601002081B0CDF800E0034CC6
:100E20002468A047DDF800E001B0704714040020FA
:100E300089B0CDF800E0069007910DF1040B0BF19D
:100E4000110ADFF8B0C001F00FF9002307222A4988
:100E50000698FFF7B3FB8DF82000012307222649EF
:100E60000698FFF7ABFB8DF82100002306222349EB
:100E70000698FFF7A3FB8DF82200012306221F49E5
:100E80000698FFF79BFBC1B208B9102000E0C8B27A
:100E90009DF82120841A9DF82130069AD31801AAC2
:100EA00019461046A2B2FFF76FFB01AA1046FFF7E2
:100EB0003FFBC1B2C2B21301114AD2180C321368FF
:100EC000079A1360079A141D0B010D4AD2180832B5
:100ED00012682260079A02F208039DF820201A7017
:100EE000079A0832531C9DF822201A70DDF800E0A2
:100EF00009B07047C7240000D4000020E90000209A
:100F00001402002001490860704700BFAC01224272
:100F100001490860704700BFB001224201490860E2
:100F2000704700BFB481224201490860704700BF8A
:100F3000A801224201490860704700BFA4812242F3
:100F400001490860704700BFA08122420149086042
:100F5000704700BF8001214201490860704700BF0F
:100F6000A881224201490860704700BF88012242DF
:100F700081B0CDF800E081B20348FFF71BFCDDF83B
:100F800000E001B0704700BF0048004081B0CDF8DC
:100F900000E081B20348FFF70DFCDDF800E001B08E
:100FA000704700BF0044004081B0CDF800E081B23E
:100FB0000348FFF7FFFBDDF800E001B0704700BF1A
:100FC000004C004081B0CDF800E081B20348FFF74B
:100FD000F1FBDDF800E001B0704700BF00500040B9
:100FE00081B0CDF800E0019D2C4610B408B493B256
:100FF0008AB201460348FFF70BFC02B0DDF800E0BF
:1010000001B070470044004001490860704700BFCC
:101010009001214281B0CDF800E081B20348FFF792
:10102000C9FBDDF800E001B0704700BF00380140A7
:1010300081B0CDF800E0019D2C4610B408B493B205
:101040008AB201460348FFF7E3FB02B0DDF800E097
:1010500001B070470038014081B0CDF800E04FF09A
:10106000420289B2FFF714FDDDF800E001B07047DD
:1010700081B0CDF800E0044A89B2FFF709FDDDF840
:1010800000E001B0704700BF1400080081B0CDF847
:1010900000E0019D2C4610B408B493B28AB2014618
:1010A0000348FFF7B5FB02B0DDF800E001B0704780
:1010B0000048004001490860704700BFAC0122426F
:1010C00001490860704700BFAC81224201490860B5
:1010D000704700BFB081224201490860704700BFDD
:1010E000B001224201490860704700BF8C012242D2
:1010F00001490860704700BFB88122420149086079
:10110000704700BF9401214201490860704700BF49
:101110009881214201490860704700BF9C812142AB
:1011200001490860704700BFA801224281B0CDF894
:1011300000E0A9E0012905D140F210016548FFF760
:101140008BFF04E040F210016248FFF791FFBBE023
:10115000012905D140F204015F48FFF77DFF04E05B
:1011600040F204015C48FFF783FFADE0012905D19F
:1011700042F200015948FFF76FFF04E042F200011C
:101180005648FFF775FF9FE0012905D140F2004165
:101190005148FFF761FF04E040F200414E48FFF77D
:1011A00067FF91E0012905D140F600014A48FFF7A9
:1011B00053FF04E040F600014748FFF759FF83E082
:1011C000012905D141F200014348FFF745FF04E042
:1011D00041F200014048FFF74BFF75E0012905D1BE
:1011E00040F201013B48FFF737FF04E040F2010104
:1011F0003848FFF73DFF67E0012905D140F2004183
:101200003648FFF729FF04E040F200413348FFF77A
:101210002FFF59E0012905D140F200212F48FFF7A7
:101220001BFF04E040F200212C48FFF721FF4BE0B8
:10123000012905D140F200112848FFF70DFF04E015
:1012400040F200112548FFF713FF3DE0012905D1C9
:1012500040F240012248FFF7FFFE04E040F2400167
:101260001F48FFF705FF2FE0012905D140F280015B
:101270001B48FFF7F1FE04E040F280011848FFF739
:10128000F7FE21E0012020E000283FF453AF0128C1
:101290003FF45EAF02283FF469AF03283FF474AF18
:1012A00004283FF47FAF05283FF48AAF06283FF4B7
:1012B00095AF0728A0D00828ACD00928B8D00A28B4
:1012C000C4D00B28D0D0DDE70020DDF800E001B06D
:1012D000704700BF000801400010014000140140A9
:1012E000000C014081B0CDF800E0A9E0012905D152
:1012F00040F220016548FFF7AFFE04E040F2200114
:101300006248FFF7B5FEBBE0012905D140F20801B4
:101310005F48FFF7A1FE04E040F208015C48FFF7D8
:10132000A7FEADE0012905D144F200015948FFF7BD
:1013300093FE04E044F200015648FFF799FE9FE057
:10134000012905D140F200415148FFF785FE04E034
:1013500040F200414E48FFF78BFE91E0012905D194
:1013600040F600014A48FFF777FE04E040F600012E
:101370004748FFF77DFE83E0012905D141F20001D6
:101380004348FFF769FE04E041F200014048FFF7DF
:101390006FFE75E0012905D141F200013D48FFF7DC
:1013A0005BFE04E041F200013A48FFF761FE67E0AE
:1013B000012905D140F600013648FFF74DFE04E053
:1013C00040F600013348FFF753FE59E0012905D1EB
:1013D00040F240012F48FFF73FFE04E040F2400199
:1013E0002C48FFF745FE4BE0012905D140F22001D2
:1013F0002848FFF731FE04E040F220012548FFF7BE
:1014000037FE3DE0012905D140F240012248FFF7B7
:1014100023FE04E040F240011F48FFF729FE2FE0C1
:10142000012905D140F280011B48FFF715FE04E0B9
:1014300040F280011848FFF71BFE21E0012020E068
:1014400000283FF453AF01283FF45EAF02283FF479
:1014500069AF03283FF474AF04283FF47FAF052839
:101460003FF48AAF06283FF495AF0728A0D008289C
:10147000ACD00928B8D00A28C4D00B28D0D0DDE7DA
:101480000020DDF800E001B0704700BF0008014017
:101490000010014000140140000C014081B0CDF863
:1014A00000E00B4D00F20C010C6800F208010B6823
:1014B000011D0A680168084691B29AB2A3B220B42D
:1014C000FFF78EFD01B00020DDF800E001B07047AD
:1014D000DC22000081B0CDF800E00B4D00F20C01E1
:1014E0000C6800F208010B68011D0A6801680846D3
:1014F00091B29AB2A3B220B4FFF7C8FD01B00020A8
:10150000DDF800E001B07047B423000081B0CDF8F1
:1015100000E0094902B440F2000340F2000240F248
:101520000001FFF785FD01B0044A05490A6000206B
:10153000DDF800E001B070474823000015100000FE
:10154000FC00002081B0CDF800E0094902B440F26F
:10155000000340F2000240F20001FFF741FD01B03C
:10156000044A05490A600020DDF800E001B0704738
:10157000DC2200008D0F0000FC00002081B0CDF8BF
:1015800000E0094902B440F2000340F2000240F2D8
:101590000001FFF77BFD01B0044A05490A60002005
:1015A000DDF800E001B07047B4230000710F0000C7
:1015B000FC00002081B0CDF800E00178CCB2A0B2F0
:1015C000034C2468A0470020DDF800E001B070471C
:1015D000FC00002081B0CDF800E0094902B440F2DF
:1015E000000340F2000240F20001FFF7F9FC01B0F5
:1015F000044A05490A600020DDF800E001B07047A8
:10160000DC2200008D0F0000FC00002081B0CDF82E
:1016100000E0012804D10020054C2468A04703E025
:101620000120034C2468A047DDF800E001B07047BA
:101630002804002000214FF005040346C8B21A46D2
:10164000591C0B461178CAB24AB100F00701C9B261
:1016500002FA01F189B26418401CC0B2EFE72046DB
:101660007047FFFF00F230031A680B490A6003F26B
:1016700018010A6809490A6003F21C010A6808494E
:101680000A6000F208010A6806490A60011D0A683A
:1016900005490A60704700BF1C0400202004002098
:1016A00024040020280400202C04002081B0CDF860
:1016B00000E00020012806D0FFF732FB18B1FFF749
:1016C0005FFBFFF76BFB52480078002800F03A8080
:1016D0005048007810B10020FFF798FF00214E48D5
:1016E000017000214D4801704D480078022805D155
:1016F0004C494D484D4C2468A0470BE04B494A48A3
:10170000FFF796FB02214648017046494648474C80
:101710002468A04700213E48017000214448018010
:1017200000214148017000214248017000214248D7
:1017300001700021414801703648007810B1012045
:10174000FFF764FF3C48007800282CD0314800782F
:1017500010B10020FFF75AFF00212F48017000212F
:101760002E48017031493048FFF762FB00212C48B8
:1017700001702C492C482D4C2468A04700212C488E
:10178000018000212848017000212A4801700021B1
:10179000294801700021294801701E48007810B1C5
:1017A0000120FFF733FF2348007800282CD0194888
:1017B000007810B10020FFF729FF002116480170C2
:1017C00000211648017019491748FFF731FB012124
:1017D0001348017013491448144C2468A047002191
:1017E0001348018000211048017000211148017048
:1017F000002111480170002110480170054800784F
:1018000010B10120FFF702FFDDF800E001B07047E2
:10181000060100200E020020050100200701002023
:101820003E0400203C0400200E010020340400206F
:101830000C010020B3000020FB0000200401002068
:1018400041F6FF27C0F2B7077F1EFDD100BF00BFE2
:1018500000BF00BF00BF704781B0CDF800E001219C
:1018600000F08AF9DDF800E001B070470A46014651
:1018700040F2000440F2000086B21046A3B2621C9F
:1018800095B2CC18B3B2721C96B2C21812782270FC
:1018900022780AB1ACB2F1E77047FFFF026806494F
:1018A0000A60011D0A6805490A6000F208010A6819
:1018B00003490A60704700BF1404002000010020A3
:1018C0001804002081B0042806D11949096841F4A0
:1018D000803217490A6028E0052806D114490968B2
:1018E00041F4003212490A601FE0062806D110496F
:1018F000096841F480220E490A6016E00F2806D1DB
:101900000C49096841F002020A490A600DE01028FA
:101910000BD3A0F2100461098A0007498B1804F068
:101920001F024FF001019140196001B0704700BFE4
:1019300024ED00E010E000E000E100E081B0EFF312
:10194000108C604662B601B07047FFFF84B0CDF8DE
:1019500000E002908DF80C10029A1278E2B1144A5D
:10196000127882B1FFF7FCF920B1002252B28DF853
:10197000042003E0012252B28DF804209DF90420D6
:101980000AB100BFEEE7029A1278D0B2FFF744FA2C
:10199000029A521C0292DFE79DF80C00FFF73CFA16
:1019A0000A20FFF739FADDF800E004B0704700BF05
:1019B0000E02002082B0CDF800E0019001991A4893
:1019C000FFF754FF1949097811B1FFF76FFEF9E7E6
:1019D00017490198FFF72CFA0D210198FFF7B6FF80
:1019E0000021012907D0042212490A7012490E4829
:1019F0000F4C2468A047002210490A7000221049A9
:101A00000A70012209490A7000220E490A60012267
:101A10000D490A700549097811B1FFF747FEF9E74A
:101A2000DDF800E002B0704740040020040100200F
:101A3000340400203E0400203C040020B3000020B9
:101A4000FB000020300400200701002081B0CDF809
:101A500000E05FFA81F95FFA82FA0FE05FFA8AF13B
:101A60005FFA89F0FFF762FB0DE05FFA8AF15FFA37
:101A700089F0FFF737FC06E0012004E00028EDD0F4
:101A80000128F2D0F8E7DDF800E001B07047FFFF71
:101A900081B0CDF800E0034C2468A047DDF800E0F9
:101AA00001B070472004002081B0CDF800E000288C
:101AB0003AD00120204C2468A047FFF7C1FE002047
:101AC0001D4C2468A047FFF7BBFEFFF7B9FE0120BD
:101AD000194C2468A047FFF7B3FEFFF7B1FEFFF7EC
:101AE000AFFEFFF7ADFEFFF7ABFEFFF7A9FEFFF776
:101AF000A7FEFFF7A5FEFFF7A3FEFFF7A1FEFFF786
:101B00009FFEFFF79DFEFFF79BFEFFF799FEFFF795
:101B100097FEFFF795FEFFF793FEFFF791FEFFF7A5
:101B20008FFEFFF78DFE03E00020034C2468A047E2
:101B3000DDF800E001B070472C0400200149087076
:101B4000704700BF0E02002081B0CDF800E009E030
:101B50000846FFF7BFFC0AE00846FFF79FFC06E0D7
:101B6000012004E00028F3D00128F5D0F8E7DDF8E3
:101B700000E001B07047FFFF83B0CDF800E00246FF
:101B800010460D228DF808200A228DF809201FE04A
:101B9000FFF710FD23E002782AB10190FFF70AFD5C
:101BA0000198401CF7E71AE002782AB10190FFF78C
:101BB00001FD0198401CF7E702AA1046FFF7FAFC66
:101BC0000DF109021046FFF7F5FC08E0062007E0DA
:101BD0000029DDD00129DED00229E5D0F6E700207A
:101BE000DDF800E003B0704781B0CDF800E00023DD
:101BF000274A13700023274A13700023264A1370C4
:101C00000023264A1370264A1060264A1160264A8D
:101C10001046FFF70FFD254A10600023244A138069
:101C20000123244A13800023234A13800023234ADC
:101C300013700023194A13700023174A13700123ED
:101C4000134A13700023154A13700023124A1370AD
:101C500000230F4A13700023194A13600123194A05
:101C600013700023174A13700023174A13600123CF
:101C7000164A13700023154A1370154A127812B1D0
:101C80000120FFF7C3FCDDF800E001B0704700BFA2
:101C90000401002006010020FB000020B30000200A
:101CA000200200201C020020B200002018020020A8
:101CB00014020020100200200C0100200E01002060
:101CC0003004002007010020080100200501002049
:101CD0000E02002081B0CDF800E003460846FFF771
:101CE000DDFD1846FFF7BEFCDDF800E001B07047EF
:101CF00081B0CDF800E0012149B20E480160002119
:101D000049B20D48016001210C48016048F69F412D
:101D10000B48016040F22C00FFF7D4FD012149B2CD
:101D20000848016004480160FFF708FEDDF800E0A4
:101D300001B070478003424200000042280000408A
:101D40002C0000408001004281B0CDF800E011E09D
:101D50000846FFF713FC16E00846FFF7F3FB12E016
:101D60000846FFF7D3FB0EE00846FFF733FC0AE016
:101D7000012008E00028EBD00128EDD02028EFD08A
:101D80003028F1D0F4E7DDF800E001B07047FFFF44
:101D900081B0CDF800E0FFF789FCFFF779FEA0B92C
:101DA0001348FFF707FE13480221FFF7E5FE12482C
:101DB000FFF700FE45F2FF07C0F2252700BF00BF76
:101DC0007F1EFDD100BF00BF00BF0C48016841F27B
:101DD0008830814208D90A48FFF7ECFD0948FFF72F
:101DE000E9FD002105480160DDF800E001B0704721
:101DF0009000002098000020AE000020B4000020D9
:101E0000B8000020C90000201C480078C8B11C4858
:101E100002681B480068411C1948016019480068A5
:101E200082420ED90021154801700021144801603A
:101E300015480188154841180020087001211448F0
:101E4000017014480078C0B1134802681248006855
:101E5000411C11480160114882420ED900210D48F1
:101E6000017000210C4801600748018807484118AB
:101E70000020087001210A48017070470701002006
:101E800030040020380400200C0100200E01002046
:101E9000B30000200501002008010020050000001B
:101EA000FB00002081B01548006840F00101134894
:101EB000016013491348016010480168124801404D
:101EC0000E4801600D4801686FF4802001400B4806
:101ED00001600C4801686FF4FE0001400948016090
:101EE000064801686FF0A0500140044801604FF0BF
:101EF00000010648016001B0704700BF00100240B9
:101F00000000FFF004100240FFFFF6FE2C1002401C
:101F100081B0CDF800E0012200210020FFF796FDFE
:101F2000012206210020FFF791FD01220721002058
:101F3000FFF78CFD002201210020FFF787FD002222
:101F400002210020FFF782FD084801460020FFF72C
:101F5000FBFD42F280512020FFF7F6FE04480221EB
:101F6000FFF70AFEDDF800E001B07047D82400005A
:101F7000000000200204060881B0CDF800E0FFF761
:101F8000B7FE1E491E48FFF7A5FE1E4840F2DC5171
:101F9000FFF72AFE0120FFF7D1FD0120FFF784FDA6
:101FA0001948FFF707FD1948FFF704FD1848FFF728
:101FB00001FD1848FFF7FEFC1748FFF7FBFC174828
:101FC0000221FFF7D9FD1648FFF7F4FC45F2FF07A1
:101FD000C0F2252700BF00BF7F1EFDD100BF00BF9C
:101FE00000BF10480221FFF7C7FD0F480221FFF78D
:101FF000C3FDDDF800E001B0704700BFF824000029
:1020000020240000591800001500002018000020AE
:102010001C000020210000202D000020370000209F
:102020004E0000205B0000207300002081B04FF0C4
:1020300000094FF0000CBDEB0A0F04DCBDEB0B0FE9
:1020400001DBD446EA464BF8049BBBEB0A0FFAD1FE
:10205000BCEB0A0F05DDE246D9F800B00BF1040B2A
:10206000F1E701B07047FFFF81B01CF8019B0BF84E
:10207000019BBBEB0A0FF8D101B0704781B0CDF8DE
:1020800000E007490868401C0860FFF7BDFE00211A
:1020900049B204480160DDF800E001B0704700BFBC
:1020A000B40000200002004200F012F800F078FABC
:1020B00000F0B0F800F026FAFFF72AFFFFF75CFF08
:1020C000FFF766FEFCE7FEE781B0FEE701B0704770
:1020D00081B0CDF800E0464A464B474C47494BF6A5
:1020E0008030814206D94648006840F002014448E9
:1020F000016011E045F6C050814206D940480068B1
:1021000040F001013E48016006E03D4801686FF083
:10211000070001403A480160FFF7C4FE39480360F8
:1021200039480460394802EA00013948016002F088
:10213000010040B119463648006800F0020000284E
:1021400000D1F8E700E0194602F4803040B10B46B8
:102150002F48006800F40030002800D1F8E700E0C4
:102160000B4602F0805068B12948006840F0805169
:10217000274801602648006800F00050002800D180
:10218000F8E7FFE702F0806078B12148006840F08E
:1021900080611F48016011461A461D48006800F022
:1021A0000060002800D1F8E701E011461A4601F06E
:1021B000807070B11648006840F08071144801606A
:1021C00011461348006800F0007000B9F9E70A46AC
:1021D000FFE70C48006800F00C01900000F00C00D4
:1021E000814200D0F5E7DDF800E001B0704700BFA4
:1021F0008100010502841D00440601004019010010
:1022000000200240041002402C100240FFFF0F008B
:102210000010024081B002490248016001B07047DD
:1022200040190100400500202D2D2D2D20537461F3
:10223000727420496E6974202D2D2D2D004154009B
:1022400041544900415445300041542B4946433DD7
:10225000322C32000041542B434D47463D31002D76
:102260002D2D2D2047534D20496E697420646F6ECB
:1022700065202D2D2D0041542B43474E535057526E
:102280003D31002D2D2D2D20474E535320496E6991
:102290007420646F6E65202D2D2D002D2D2D2D2089
:1022A000506C656173652C2063616C6C206D6520DA
:1022B0003A29202D2D2D2D0041542B434C43430012
:1022C0002D2D2D2043616C6C2064657465637465ED
:1022D00064202D2D2D004154480000FF35000000E2
:1022E00036000000FFFFFFFF0000000000000000BC
:1022F00000000000000000000000000000000000DE
:1023000000000000000000000000000000000000CD
:102310001808000018000000000000000000000085
:1023200000000000000000000000000000000000AD
:10233000000000000000000000000000000000009D
:102340000000000008000008090000000A0000006A
:10235000FFFFFFFF00000000000000000000000081
:10236000000000000000000000000000000000006D
:10237000000000000000000000000000180800003D
:102380001800000000000000000000000000000035
:10239000000000000000000000000000000000003D
:1023A000000000000000000000000000000000002D
:1023B000040000003800000039000000FFFFFFFFAC
:1023C000000000000000000000000000000000000D
:1023D00000000000000000000000000000000000FD
:1023E00000000000000000001808000018000000B5
:1023F00000000000000000000000000000000000DD
:1024000000000000000000000000000000000000CC
:102410000000000000000000000000003000140870
:1024200009100000650F00001D0F0000290F0000BB
:10243000050F0000110F00004D0F0000590F0000A4
:10244000350F0000410F00000911000015110000B8
:102450000D05000001050000C10C0000CD0C0000BE
:10246000D90C00009D0C0000A90C0000B50C000068
:10247000E50C0000F10C0000FD0C0000090D00004F
:102480000000000041542B43474E535345513D2219
:10249000474741220041542B43474E53494E460083
:1024A0000000002B0000230000240000255C002613
:1024B00000000000000000003D3F003F00003D0024
:1024C000003A00000D0000000000000000000000C5
:1024D0000000000000000000802500000000000057
:1024E00000000000000000000000000001020304E2
:1024F0000102030406070809710F000085070000A8
:102500009D07000000B5DFF824B0DFF824A0DFF855
:1025100024C0FFF7A9FDDFF820B0DFF820A0DFF826
:1025200020C0FFF7A1FD00BD704700BF00000020E4
:10253000B300002028220000B4000020FB0000208F
:1025400080240000FFFFFFFFFFFFFFFFFFFFFFFFF3
:10255000FFFFFFFFFFFFFFFFFFFFFFFFFFFFFFFF8B
:10256000FFFFFFFFFFFFFFFFFFFFFFFFFFFFFFFF7B
:10257000FFFFFFFFFFFFFFFFFFFFFFFFFFFFFFFF6B
:10258000FFFFFFFFFFFFFFFFFFFFFFFFFFFFFFFF5B
:10259000FFFFFFFFFFFFFFFFFFFFFFFFFFFFFFFF4B
:1025A00000B5DFF810B0DFF810A0FFF73FFD00BD69
:1025B000704700BF0000002054050020FFFFFFFF10
:00000001FF
